:03000000020006F5
:0F005F00750801750904750A02750B0802000384
:0300030002006E8A
:20006E00750EB8750F0B750C01750D0012007F80FB7401B50C06E4B50D028001227E007F14
:20008E0000EE2408F98790850E82850F83C007C0061200B7D006D0070EBE00010FC3EE94D8
:2000AE0004EF6480948040D922AE82AF837C007D00C3EC9EED64808FF063F08095F0500765
:0800CE000CBC00ED0D80EA22DC
:06003500E478FFF6D8FD9F
:200013007900E94400601B7A009000DA780175A000E493F2A308B8000205A0D9F4DAF275B9
:02003300A0FF2C
:20003B007800E84400600A790175A000E4F309D8FC7800E84400600C7900900001E4F0A3C3
:04005B00D8FCD9FAFA
:0D00060075810F1200D6E582600302000331
:0400D600758200220D
:00000001FF
